:020000000C945E
:100002005E000C9400000C9400000C9400000C9410
:1000120000000C9400000C9400000C9400000C945E
:1000220000000C948E000C9400000C9400000C94C0
:1000320000000C9400000C9400000C9400000C943E
:1000420000000C9400000C9400000C9400000C942E
:1000520000001027E80364000A00010000100001FC
:100062001000010000000000000054696D6572205C
:1000720025643A25643A25643A2564005354415272
:10008200540053544F5000535441525420202020C6
:10009200202052455345540001002D4E414E004947
:1000A2004E46000080C00600040066000100700198
:1000B2009A0002007401A6000000F894EE27ECBB3F
:1000C200F1E0FBBFEBBFE5BFF8E1F1BDE1BD8DE0C3
:1000D200A2E0BB27ED938A95E9F780E094E0A0E6E1
:1000E200ED930197E9F7E8EAF0E0859195910097A1
:1000F20061F0A591B59105901590BF01F0010590B1
:100102000D920197E1F7FB01F0CFEFE5EDBFE4E0DF
:10011200EEBFC0E6D1E00C941801EA93EFB7EA9380
:10012200EAE8E2BF5394E991EFBFE9911895E4E65A
:100132005E1620F00E942A0373945524ECE37E1687
:1001420010F063947724ECE36E1610F09394662417
:100152000895A0E0C899A1E0A03039F4E0E0E415E8
:1001620019F0E2E0E41509F401C005C0E1E04E2E09
:10017200E9BF0E942A03A0E0C999A1E0A03019F4C6
:10018200E1E0E41509F006C0E2E04E2EE0E0E9BF4E
:100192000E942A03A0E0CA99A1E0A03019F4E2E08B
:1001A200E41509F007C044245524772466249924D1
:1001B2000E942A030895E0E0EA93A0E00E941A0355
:1001C200E0E6F1E0FA93EA93ECE6F0E0FA93EA93E0
:1001D200E92D0E94D603E62D0E94D603E72D0E9448
:1001E200D603E52D0E94D60380E10E94A602649602
:1001F200A0E6B1E00E945703442031F40E94DC03E0
:10020200AEE7B0E00E946603E1E0E41531F40E943B
:10021200DC03A4E8B0E00E946603E2E0E41531F4F6
:100222000E94DC03A9E8B0E00E9466030895EFE0B3
:10023200EBBBE0E0EABBE5E0E3BFEAE8E2BFE0E017
:10024200ECBFE0E8E8B9E0E0E0BFA0E10E948A0389
:1002520078947FDF6CDFAFDFFCCFFFCFBA93AA9336
:100262001A930A93AA81BB8112960E941E043097A8
:1002720059F1AA81BB8114960E941E048F01309706
:1002820061F00230E0E01E07F0F0F80131978F01D3
:10029200AA81BB811496ED93FC93AA81BB8112962D
:1002A200ED91FD913196FE93EE933197AC81A0834F
:1002B200AA81BB810E941E04FF232AF0ED91FD91C9
:1002C2003196FE93EE9306C0AA81BB81EFEFFFEF5A
:1002D200ED93FC931981088125960895BA93AA9308
:1002E20026970E942B0410E0AC85BD85E0E0F0E08B
:1002F200ED93FC93EA89FB893196EA8BFB8B31976C
:10030200E4912E2FE03011F40C949E02E12FE030A4
:1003120039F4253211F411E002C00E94E1030CC14C
:10032200E130A9F4253219F40E94E10304C112E07C
:1003320040E000E02D3211F401E0FEC02B3211F456
:100342004BE2FAC0203211F440E2F6C002C0E230C1
:1003520039F450E013E0203311F40068EDC004C01A
:10036200E33011F00C949D02203310F02A3308F090
:1003720007C0AAE05A9F502DE22FE0535E0FDCC067
:10038200E22FE33649F40E94E803E889F989A4815F
:10039200AA930E94EE03CFC0E33741F40E94E80320
:1003A2000E94F4030E94BD031E2F0AC0E03761F4CD
:1003B2000E94E8030E94F4030E94C9031E2F0860F2
:1003C20002600F7730E035C0E43611F0E93611F4FF
:1003D200046002C0E53731F4E4E5F0E0EE83FF8328
:1003E20015E00DC0E83511F4086004C0E83711F0DB
:1003F2000C949C02EEE5F0E0EE83FF8314E002FF32
:1004020014C00E94E8030E94FE03AB85AA233AF4BB
:10041200EA85FB850E941A04EA87FB874DE2403099
:1004220011F01F5F01C00B7F04C00E94E8030E940D
:10043200FE0300FD11C0151778F407FF08C002FF84
:1004420004C00B7F242F115001C020E301C020E221
:100452000E94E1035150EFCF312F01FF17C030301E
:10046200A1F003FF06C0EE81FF812591EE83FF8399
:1004720005C0AE81BF812D91AE83BF830E94E1038F
:10048200503009F051503150EACF4BC020E3EE8199
:10049200FF810E942204E887F987EE81FF8132966C
:1004A200EE83FF83E885F985AA85BB85AE17BF0772
:1004B20050F02F5FA885B985EA85FB85EA1BFB0B07
:1004C200EA87FB87EFCF2A3328F003FF02C0295FB8
:1004D20001C0295D04FD1AC0213320F4A885B98525
:1004E200119709F409C0531710F000FF01C013C09F
:1004F20020E207FF0BC020E3006102FF07C00B7F71
:100502004A930E94EE03503009F051500E94E103D9
:10051200503009F051503150A885B985129708F032
:10052200B5CF00FF08C0503031F05150E0E2EA93FD
:100532000E94EE03F8CF10E0DDCEAC85BD850E94AF
:100542001E040E94320464960895FF92F82E2697A4
:100552000E942D040E940604309719F4EFEFFFEF7A
:1005620023C0DE0116960E9416048D010E94060425
:10057200EE83FF83E0E0E887E987DE011A960E94B6
:1005820016040E941E04FA93EA931A930A93EFE266
:10059200F1E0FA93EA93DE011A96A0DE9F01AE81A2
:1005A200BF81E0E0EC93F9010E9434042A96FF90A7
:1005B2000895FFE0FA95F1F70895A4B3AF70A4BBD4
:1005C200A99AA898F6DFAA9AF4DFA3B3AA98F1DF52
:1005D200AA9AEFDFAA98A7FDF5CF0895A07FAB2BCB
:1005E200A5BBAA9A0E94DA02AA980E94DA0208958A
:1005F200AA93A998A4B3A76FA4BBB5B3BF70A881EF
:10060200EDDFA881A295EADFA99A0C94BB03AA9A0E
:100612000E94DA02E3B3AA980E94DA02E07F089508
:100622000E94DA02F4DFAE2FF2DFA998E295EA2BFC
:100632000895AA930E94DE02E881F0E0EC58FE4F92
:10064200E081A981AE0F0E94F9028980B8802296CA
:1006520008950E94DE02A2E00E94F9020E94DE02D8
:10066200ACE00E94F9020E94DE02A1E00E94F902BF
:10067200E0E0BE2E8E2E0895AA93EF93FF93A881F9
:100682006894AA3019F0E8948A1430F0B394E0E048
:10069200EA93AB2DCEDF36F083948FDFA89AA88140
:1006A2000E94F902FF91EF910C94BB03BA93AA93B3
:1006B2001A93A981BA81ED91A983BA831E2FE030E2
:1006C20019F0A12FD9DFF5CF10C0BA93AA931A93CC
:1006D200E981FA813196E983FA833197E4911E2FF9
:1006E200E03019F0A12FC8DFF3CF188123960895C7
:1006F200AA27BB271197F1F70895AA93A998A4B343
:10070200A76FA4BBB5B3BF70A8810E94EF02A99ADC
:1007120031C0AA93AA98A898A880E881E058E093EB
:100722007601E881E054E09377010E940D040E9473
:100732000D040E940D04DCDFA0E2DFDFD9DFA8E2B6
:100742000E941204A4E00E941204A5E80E9412046E
:10075200A4B3AF70A4BBA99A0E941103E53011F0B3
:10076200E0E008C00E94DE02A6E00E94F9020E94B8
:100772002A03E1E021960895BA93AA93A991B99127
:10078200EE27FF276D91662311F03196FBCF089576
:10079200BA93AA93AA27BB27E991F9910590002061
:1007A20011F01196FBCFFD010895FF2766277727E9
:1007B2000E9426040895E0E0EA93A1E00C941A0353
:1007C2002A93AD85BE85EF85F88909950895E88954
:1007D200F9893497E88BF98B0895AD85BE85EF854D
:1007E200F88909950895A889B98914960E941E046A
:1007F200EE83FF83AE81BF810895A889B9891496DB
:100802000E941E04EA87FB870895DE011C960E945F
:1008120016040E941E0408950E947903A0E30C941A
:100822007E030E94F9020C9479030024AF0DB01DDF
:100832000895F195E195F0400895ED91FC9111979D
:1008420008950590F491E02D08957A936A93FA93AE
:10085200EA9308955A934A933A932A931A930A93DE
:1008620008955D814C813B812A8119810881089517
:00000001FF
