:0400000012C0FECF5D
:10000400FDCFFCCFFBCFFACFF9CFF8CFF7CF26C087
:10001400F5CFF4CFF3CFF2CFF1CFF0CFEFCFEECFD8
:10002400EDCFF894EE27ECBBF1E0FBBFEBBFE5BFEF
:10003400F8E1F1BDE1BD8DE0A2E0BB27ED938A9527
:10004400E9F780E094E0A0E6ED930197E9F7EFE5A6
:10005400EDBFE4E0EEBFC0E6D1E010C0EA93EFB735
:10006400EA934394741410F0EFEF01C0E0E0E2BBB4
:10007400EFEFE2BFE991EFBFE9911895E0E0E8BB4B
:10008400E7BBE5BBE4BBE2BBEFEFE1BBE1E0E3BF11
:10009400E0E0E2BFE1EAEFBDE1E0EEBDE0E0EDBDAE
:1000A400ECBDE7BDE6BDEBBDEABDE9BDE8BDE2BD23
:1000B400E5BDE4BDE3BDE5BFE1E0E9BFE0E8E8B9E3
:1000C400E0E0E0BF7894752C5394E5E0F0E0FA9317
:1000D400EA9302D0F8CFFFCFE991F991309639F045
:1000E4008DEC9AE00197F1F7A8953197C9F7089537
:00000001FF
