:0E0000000C9454010C9400000C9400000C941D
:10000E0000000C9400000C9400000C9400000C9462
:10001E0000000C9400000C9400000C9400000C9452
:10002E0000000C9400000C9400000C9400000C9442
:10003E0000000C9400000C9400000C9400000C9432
:10004E0000000C9400001027E80364000A00010071
:10005E0000100001100001003C3C3C3C3C3C3C3C90
:10006E003C3C3C3C3C3C3C3C256400693A002B004B
:10007E004552524F52204D4158203D2032353500C9
:10008E00416C68616D64756C696C6C616800496E79
:10009E00707574203A0053656C65736169203A007F
:1000AE00202020204269736D696C6C6168202020CD
:1000BE00005E5F5E204B616C6962726173695E5FA8
:1000CE005E0020416C68616D64756C696C6C616872
:1000DE0020200053656D6F67612053756B736573D8
:1000EE00203A2900203E3E3E2053656E736F7220EB
:1000FE003C3C3C2000202053656E736F72202042E2
:10010E00616361202000313A47656C617020323A9C
:10011E00546572616E670025642025642025642075
:10012E0025640020204D6173756B616E204D6F64E8
:10013E00652000202020202053746172742020201E
:10014E0020200020416C68616D64756C696C6C6177
:10015E00682000204D6173756B616E204368656386
:10016E006B5020002020204D4F544F52204B4952AF
:10017E004920202000313A4D616A752020323A4DD7
:10018E00756E647572005370656564203A200020A8
:10019E00204D4F544F5220204B414E414E202000B7
:1001AE0044656C6179203A20004B50203A20004B78
:1001BE0044203A20002020204269736D696C6C61E6
:1001CE006820202020004D6F646520537461727486
:1001DE00203A20312F34004D6F64652053746172C4
:1001EE0074203A20322F3300415353414C414D5528
:1001FE00414C41494B554D2000204249534D494CED
:10020E004C4148203A2920200020202020544F4FD6
:10021E0054484C4553532020200020204C696E65D5
:10022E0020466F6C6C6F7765722000202050696CD1
:10023E0069682020204D656E7520200080C0080062
:10024E001602660008001E026E00110060016101B8
:10025E0011007101610111008201720111009301FF
:10026E0083010900A40194011100AD019D0111004B
:10027E00BE0183010900CF0194010900D801AE012E
:10028E000900E10194010600EA01B7010600F00140
:10029E00BD01020030024A020000F894EE27ECBBCA
:1002AE00F1E0FBBFEBBFE5BFF8E1F1BDE1BD8DE0D5
:1002BE00A2E0BB27ED938A95E9F780E094E0A0E6F3
:1002CE00ED930197E9F7ECE4F2E0859195910097B3
:1002DE0061F0A591B59105901590BF01F0010590C3
:1002EE000D920197E1F7FB01F0CFEFE5EDBFE4E0F2
:1002FE00EEBFC0E6D1E00C94830EE881E062E7B970
:10030E0085E38A95F1F7369A349BFECF349AE5B1A0
:10031E0068C20E949411A998AE9AAD9AAB9A9A9916
:10032E0002C0E1E00895989902C0E2E008959C9918
:10033E0002C0E3E008950E949411A99AAE98AD9A76
:10034E00AB9A9A9902C0E4E00895989902C0E5E04C
:10035E0008959C9902C0E6E00895AE9A0E94941109
:10036E00A99AAE9AAD98AB9A9A9902C0E7E0089511
:10037E00989902C0E8E008959C9902C0E9E00895BA
:10038E000E949411A99AAE9AAD9AAB989A9902C00E
:10039E00EBE00895989902C0E0E008959C9902C0A0
:1003AE00ECE00895EBE7089508951A930A931BE77E
:1003BE001BE71B3789F4ADDF1E2F1B3709F0012F0A
:1003CE00011749F4011729F4A4DF1E2F0E9494117E
:1003DE00F9CFE02F49C2EDCF0E949A110E94C013AF
:1003EE00E12F42C223970E94591410E001E020E051
:1003FE0030E050E001E00E949F112330E0E03E0724
:10040E0014F45C3009F420C0E9850E94A511CDDFFB
:10041E005E2F5C30C9F0F901DE011696EA0FFB1F64
:10042E0050830E94AA11E6E7F0E0FA93EA93E52FD3
:10043E000E94AF110E94B5110E941C112F5F3F4FF9
:10044E00E985EF5FE987D9CFE9E7F0E00E94BA11BD
:10045E000E94AA11E6E7F0E0FA93EA93F9010E94EE
:10046E00D9130E941E140E94B5110E941C11ECE7B4
:10047E00F0E00E94BA1121503040EFEFFFEFE2178B
:10048E00F30774F4DE011696A20FB31FAC910A02A5
:10049E00F0011E0FAAE00A02002D21503040EDCFD0
:1004AE000E94E410E0E00E94A511EFEFE11748F47E
:1004BE00EEE7F0E00E94BA11E985EA9393DF1E2F72
:1004CE0004C0EEE8F0E00E94BA110E949F110E9453
:1004DE00E410E12F0E9460142A960895969AE981FD
:1004EE00E03019F40E94BE1104C00E94BE110E9499
:1004FE00C111FBBDEABDE981E03011F4909801C055
:10050E00909A23C0979AE981E03019F40E94BE11A7
:10051E0004C00E94BE110E94C111F9BDE8BDE9815F
:10052E00E03011F4919801C0919A0FC0E1E0EA9386
:10053E00EC81EA93D3DFE1E00E94C81177C40E94F8
:10054E00D311EA81FB810E94D71122960895ED8185
:10055E00EA93ED81EA93C2DFEB810E94C811E0E0DD
:10056E00F0E00E94DB1126960895AF98A881A33083
:10057E0061F40E94DF11E6E9EA93EA93E1EEF0E01E
:10058E000E94D7110E94E2111AC0A881A23051F424
:10059E000E94DF11E4E60E94E5110E94D7110E942D
:1005AE00E2110DC0A881A13029F40E94DF110E9432
:1005BE00E21105C0E881E03011F40E949411AF9A67
:1005CE0010C11A930A9307E010E0183070F40E94DD
:1005DE00EB11E25FFD4FFF93EF931A938EDEAF9117
:1005EE00BF91EC9301501F5FF0CF3EC11A93E9DF2C
:1005FE000E94EE1189F410E0183068F40E94F41194
:10060E0020F00E940812E1E003C00E940812E0E010
:10061E00EC931F5FF1CF10C010E0183068F40E9409
:10062E00F41120F00E940812E0E003C00E940812AC
:10063E00E1E0EC931F5FF1CFA0912602A13011F4FF
:10064E00DD2406C0A0912D02A13011F4E1E0DE2ED2
:10065E00E0912702EE0FA0912602AE0FE091280244
:10066E00EE0FEE0FAE0FE0912902EE0FEE0FEE0F32
:10067E00EA0F6E2FE0912A02A0E1EA9FF0016E0FC1
:10068E00E0912B02A0E2EA9FF0016E0FE0912C02A6
:10069E00A0E4EA9FF0016E0FE0912D02A0E8EA9F20
:1006AE00F001E60F7E2E199108950E945B140E94B0
:1006BE00E410E0E00E94A511EEEAF0E00E94BA110B
:1006CE00EFEBF0E00E94BA1110E01A3058F4E12F6F
:1006DE000E940D12AE0FBF1FE8E7F0E00E9440141B
:1006EE001F5FF3CFAF98E7E0E51521F0E3E0E515E6
:1006FE0009F05CC00EDE5E2E64DF00E000E0083024
:10070E0048F50E94EB110F01E25FFD4FA081F00151
:10071E00E25EFD4FE081EA1728F0A02FB0E0A25E66
:10072E00BD4F10C00E94EB110F01E25FFD4FA08183
:10073E00F001EA5EFD4FE081EA1750F4A02FB0E021
:10074E00AA5EBD4FE02FF0E0E25FFD4FE081EC933B
:10075E000F5FD5CF30E030E0383038F5E32F0E9410
:10076E000D12EA0FFB1FFF93EF930E941312E25E2E
:10077E00FD4F608177270E941312EA5EFD4FA08124
:10078E00B0E00E941312E25EFD4FE081F0E0AE1B7E
:10079E00BF0BE2E0F0E00E940314E60FF71FAF91EB
:1007AE00BF910E9440143F5FD7CF9DCFAF9A0E945A
:1007BE00E410E0EDF0E00E94BA11E1EEF0E00E94EC
:1007CE00BA110E9416120E94E4100E9462142EC3E7
:1007DE00E881E03011F4E0E301C0E1E3EA930E9426
:1007EE00FB10219608951A930A9307E0E0E00E9409
:1007FE00A511E2EFF0E00E94BA110E949411F6DE0C
:10080E000E941C120E94D21010E0183050F40E9468
:10081E00EB11EA5DFD4FE081EA93DADF01501F5FD5
:10082E00F4CF0E9421120E94D2100E94EE1121F4E8
:10083E00E0E0829BE1E003C0E0E08299E1E0EA9330
:10084E00C7DFEDE00E9426120E94EE1121F4E0E0D7
:10085E00839BE1E003C0E0E08399E1E0EA93B8DF37
:10086E00EAE0F0E00E942B12099119910895ECE054
:10087E00E515D9F0E3E0F1E00E94BA11E4E1F1E010
:10088E000E94BA1192DD5E2EE1E0E51529F40E9478
:10089E002F120E94351209C0E2E0E51529F40E94DC
:1008AE003A120E94351201C0E2CF0895ECE0E51530
:1008BE00B1F12FDD5E2E0E94E4100E944012E5E29F
:1008CE00F1E0FA93EA93E7E00E944512E6E00E9417
:1008DE004512E5E00E944512E4E00E9445120E9496
:1008EE0049120E941C11E0E00E9426120E94401242
:1008FE00E5E2F1E0FA93EA93E3E00E944512E2E0CA
:10090E000E944512E1E00E944512E0E00E9445126D
:10091E000E9449120E941C110E944E12C7CF0E94C3
:10092E00E410089526970E94591460DE0E94511219
:10093E0019F408EF1FEF7DC0E330A0E0FA0719F4B9
:10094E000AEF1FEF76C0E230A0E0FA0719F40BEFC2
:10095E001FEF6FC0E630A0E0FA0719F40CEF1FEF9F
:10096E0068C0E430A0E0FA0719F40DEF1FEF61C084
:10097E00EC30A0E0FA0719F40EEF1FEF5AC0E83082
:10098E00A0E0FA0719F40FEF1FEF53C0E831A0E013
:10099E00FA0709F44CC0E031A0E0FA0719F401E0BF
:1009AE0010E047C0E033A0E0FA0719F402E010E0CF
:1009BE0040C0E032A0E0FA0719F403E010E039C0BD
:1009CE00E036A0E0FA0719F404E010E032C0E0349B
:1009DE00A0E0FA0719F405E010E02BC0E03CA0E01F
:1009EE00FA0719F406E010E024C0E038A0E0FA0798
:1009FE0019F408E010E01DC0E03FA0E0FA0719F47A
:100A0E000AE010E016C0EF30A0E0FA0719F406EF86
:100A1E001FEF0FC0309759F4DD2019F406EF1FEFCA
:100A2E0005C0E1E0ED1511F40AE010E002C000E0AF
:100A3E0010E00E945712EA87FB8700932E02109354
:100A4E002F02AD850E945F12EC85F0E0AA85BB8572
:100A5E000E946512EE83FF8368877987AE85BB2778
:100A6E000E946C12EE85F0E0AE81BF81EA0FFB1F93
:100A7E00AF01EE850E9474122CF4E0E0EA93EF854C
:100A8E00EA9308C033231AF40E94791203C0E0E0FF
:100A9E00EA932A9323DDEE850E947F122CF4E0E088
:100AAE00EA93EF85EA930BC0552332F4E1E0EA9323
:100ABE00E42FE195EA9303C0E0E0EA934A9322DD46
:100ACE000E9460142F9608952B97EFEFE883E2E3D0
:100ADE00E983EFE0EA83E7E1EB83E6E9EC830E944A
:100AEE00591481DEE6E9EA870E94511219F408EFE3
:100AFE001FEF70C0E330A0E0FA0719F40AEF1FEF02
:100B0E0069C0E230A0E0FA0719F40BEF1FEF62C0E4
:100B1E00E630A0E0FA0719F40CEF1FEF5BC0E430EB
:100B2E00A0E0FA0719F40DEF1FEF54C0EC30A0E06F
:100B3E00FA0719F40EEF1FEF4DC0E830A0E0FA07E8
:100B4E0019F40FEF1FEF46C0E831A0E0FA0709F4E1
:100B5E003FC0E031A0E0FA0719F401E010E03AC01E
:100B6E00E033A0E0FA0719F402E010E033C0E032FF
:100B7E00A0E0FA0719F403E010E02CC0E036A0E084
:100B8E00FA0719F404E010E025C0E034A0E0FA07FB
:100B9E0019F405E010E01EC0E03CA0E0FA0719F4DD
:100BAE0006E010E017C0E038A0E0FA0719F408E0FC
:100BBE0010E010C0E03FA0E0FA0719F40AE010E0E0
:100BCE0009C0EF30A0E0FA0719F406EF1FEF02C0DC
:100BDE0000E010E00E945712EF87F88B00932E0270
:100BEE0010932F02A9850E945F12E885F0E0AF8571
:100BFE00B8890E946512EB87FC876D877E87AA8570
:100C0E00BB270E946C12EA85F0E0AB85BC85EA0F2B
:100C1E00FB1FAF01EA850E9474122CF4E0E0EA9308
:100C2E00EB85EA9308C033231AF40E94791203C0AD
:100C3E00E0E0EA932A9352DCEA850E947F122CF4BC
:100C4E00E0E0EA93EB85EA9308C055231AF40E947C
:100C5E00791203C0E0E0EA934A9354DC85E38A9567
:100C6E00F1F70E946014619608951A9310E0EC81DA
:100C7E00E03001F5EB81E117E0F0AA81A23031F40A
:100C8E00829903C00E948412FBCF11C0AA81A130A9
:100C9E0031F4829903C00E948C12FBCF08C0EA8106
:100CAE00E03029F4829903C00E949412FBCF1F5F9B
:100CBE00E1CF22C0AC81A130F9F4EB81E117E0F075
:100CCE00AA81A23031F4839903C00E948412FBCF13
:100CDE0011C0AA81A13031F4839903C00E948C12F5
:100CEE00FBCF08C0EA81E03029F4829903C00E944C
:100CFE009412FBCF1F5FE1CFE981EA9336DC1881B6
:100D0E00A8C31A9310E0EC81E03001F5EB81E117F6
:100D1E00E0F0AA81A23031F4829B03C00E948412BB
:100D2E00FBCF11C0AA81A13031F4829B03C00E9477
:100D3E008C12FBCF08C0EA81E03029F4829B03C0FD
:100D4E000E949412FBCF1F5FE1CF22C0AC81A13075
:100D5E00F9F4EB81E117E0F0AA81A23031F4839B24
:100D6E0003C00E948412FBCF11C0AA81A13031F4BE
:100D7E00839B03C00E948C12FBCF08C0EA81E03037
:100D8E0029F4829B03C00E949412FBCF1F5FE1CF18
:100D9E00E981EA93EADB18815CC3A981A23051F4A0
:100DAE000E949C1219F00E94A31219F40E94841240
:100DBE00F7CF39C0A981A13051F40E949C1219F0CD
:100DCE000E94A31219F40E948C12F7CF2CC0A98195
:100DDE00A33049F40E949C1211F0829903C00E9424
:100DEE008412F8CF20C0A981A43049F40E949C122D
:100DFE0011F0839903C00E948412F8CF14C0A98108
:100E0E00AA3049F40E949C1219F00E94A31211F408
:100E1E005BDEF8CF08C0E981E03029F4829903C087
:100E2E000E949412FBCFE881EA939FDB24960895EB
:100E3E00AA81A130F1F4A981A13061F4A09126021A
:100E4E00A03021F0A0912802A03019F40E948C123B
:100E5E00F5CF0EC0A981A23059F4A0912602A03080
:100E6E0021F0A0912802A03019F40E948412F5CF2F
:100E7E0020C0EA81E030E9F4A981A13061F4A091AB
:100E8E002B02A03021F0A0912D02A03019F40E9467
:100E9E008C12F5CF0EC0A981A23059F4A0912B026D
:100EAE00A03021F0A0912D02A03019F40E948412DE
:100EBE00F5CFE881EA9359DB239608950E945B14DF
:100ECE00EC81E030A1F0AC81A13009F44EC0AC81D0
:100EDE00A23009F4BFC0AC81A33009F429C1AC81A2
:100EEE00A43009F4BFC1AC81A53009F43DC20E9403
:100EFE002F120E94AA120E94AA120E94AF120E94E2
:100F0E00B5120E94BB12E1E00E94E5110E94C012D0
:100F1E0000E010E00C32E1E01E072CF40E948C126F
:100F2E000F5F1F4FF7CF00E010E00330E0E01E0729
:100F3E007CF40E94C4120E94C8120E94E5110E9405
:100F4E00C0120E94B5120E94D2120F5F1F4FEDCF3A
:100F5E000E942F1200E010E0043FE1E01E072CF487
:100F6E000E948C120F5F1F4FF7CF0E94DD120E945E
:100F7E00C4120E94E2120E94E7120E94AF1200E019
:100F8E0010E00A3CE8E01E072CF40E9484120F5F6A
:100F9E001F4FF7CF00E010E0083BEBE01E072CF4EC
:100FAE000E948C120F5F1F4FF7CF0E94B512E2E026
:100FBE000E94EA12E6E9EA930E94AA120E94AF1278
:100FCE0000E010E00431E5E01E072CF40E948C12C4
:100FDE000F5F1F4FF7CF0E94C4120E94C4120E94CF
:100FEE00F0120E94F31200E010E00C3DE5E01E0747
:100FFE002CF40E948C120F5F1F4FF7CF0E94FA1233
:10100E000E94C4120E94FF120E94F312DD2400E01F
:10101E0010E00032E3E01E072CF40E948C120F5FEA
:10102E001F4FF7CFAF9800E010E00431E5E01E0748
:10103E002CF40E9484120F5F1F4FF7CFAF9A00E07F
:10104E0010E0083EE3E01E072CF40E948C120F5FA6
:10105E001F4FF7CF0E942F12AC81A23061F40E9475
:10106E00FA120E94021399DE0E94D3110E94AA1254
:10107E000E94AF120BC00E94FA120E94C4120E946C
:10108E00E2120E9407130E940A13DD2400E010E012
:10109E000235E3E01E072CF40E948C120F5F1F4FE7
:1010AE00F7CF0E94B512E1E00E94EA120E94E71209
:1010BE000E940A1300E010E0003AEFE01E072CF445
:1010CE000E9484120F5F1F4FF7CFAF9800E010E021
:1010DE00003AEFE01E072CF40E940D130F5F1F4F16
:1010EE00F7CFAF9A00E010E0043CE9E01E072CF4C5
:1010FE000E9484120F5F1F4FF7CF0E9415130E949C
:10110E001A130E943A120E943A120E943A12E0E01A
:10111E00EA930E94E7120E94AF120E941D130C3D2B
:10112E00E5E01E072CF40E9422130F5F1F4FF7CF2E
:10113E000E943A120E943A120E941D13083CE0E0EF
:10114E001E072CF40E9422130F5F1F4FF7CFE1E012
:10115E00DE2E0E94B5120E94BB12E1E00E94E51144
:10116E000E94C01200E010E00436E0E01E072CF4EE
:10117E000E9422130F5F1F4FF7CF0E94B5120E94DD
:10118E00BB120E942A130E94AF120E941D13083C2C
:10119E00E0E01E072CF40E9422130F5F1F4FF7CFC3
:1011AE000E942F130E94C412F8DD0E942F120E947B
:1011BE002F120E9434130E943413E4EBF0E00E94CD
:1011CE00C0120E94C4120E9439130E943E13BFD94E
:1011DE00AF9A00E010E00436E0E01E072CF40E9407
:1011EE0094120F5F1F4FF7CF0E944A13E1E0EA936C
:1011FE000E944D130E949A11AAD900E010E0093BFB
:10120E00EBE01E072CF40E9422130F5F1F4FF7CF47
:10121E00AF980E942F130E9454130E9407130E942E
:10122E009A1195D9AF9A0E943A120E943A120E94D0
:10123E005D130E9439130E946213093CE0E01E0701
:10124E002CF40E9494120F5F1F4FF7CFE1E0EA9348
:10125E000E94B51256DD0E94AA120E94AA120E9486
:10126E009A1175D9AC81A43049F4E0E0EA93E6E432
:10127E00EA930E946713EFEFF0E006C0E1E0EA9315
:10128E000E940713E2ECF1E0FA93EA9360D9DD24B1
:10129E000E942F120E942F1200E010E00C32E1E0AB
:1012AE001E072CF40E9484120F5F1F4FF7CF0E946F
:1012BE002F130E9421120E941A130E943A12AF9805
:1012CE0000E010E0003DE7E01E072CF40E948412BF
:1012DE000F5F1F4FF7CFAF9A00E010E00032E3E050
:1012EE001E072CF40E9484120F5F1F4FF7CFE0E011
:1012FE00EA93E3E0EA930E946C130E94FF120E94AD
:10130E0070130E947513E1E0DE2EAF9800E010E03E
:10131E000436E0E01E072CF40E948C120F5F1F4F64
:10132E00F7CFEAE0F0E00E94DB11AF9A0E94AA121A
:10133E00E0E0EA93E2E3EA930E940A130E94AA1203
:10134E000E94AA12E2E3F0E00E94C0120E949A11DB
:10135E00F6D800E010E00634E0E01E072CF40E9400
:10136E0022130F5F1F4FF7CF0E943A120E943A12BC
:10137E00E2E0EA93E7E0EA930E9402130E94E2128F
:10138E000E9407130E940A13DD2400E010E00436C9
:10139E00E0E01E072CF40E948C120F5F1F4FF7CF58
:1013AE000E94DD120E940213F8DCE0E0EA930E9434
:1013BE0007130E94AF120E949A110E94C013DD24DF
:1013CE000E942F130E94C412E8DCE1E0DE2EE0E062
:1013DE00EA930E94E7120E949A11B9D80E942F1226
:1013EE000E942F1200E010E0083EE3E01E072CF4EE
:1013FE000E948C120F5F1F4FF7CF0E945D130E9449
:10140E006C130E94E212E6E0EA930E942112C5DC00
:10141E000E9416120E94AA120E94AA120E94AF12D5
:10142E000E94FA120E94C4120E9462130A30E0E077
:10143E001E076CF40E949A110E94C013AF980E946E
:10144E009A110E94C013AF9A0F5F1F4FEFCF0E94E9
:10145E006214259608950E945B14EC81E030A1F091
:10146E00AC81A13009F450C0AC81A23009F4BCC0EB
:10147E00AC81A33009F42CC1AC81A43009F4CDC1E8
:10148E00AC81A53009F44BC20E942F120E94AA1201
:10149E000E94AA120E94AF120E94DD120E94C41274
:1014AE000E94E212EDE7EA930E94AA120E94AF1286
:1014BE000E941D130C32E1E01E072CF40E948C12C8
:1014CE000F5F1F4FF7CF00E010E00330E0E01E0784
:1014DE0084F40E94B5120E94D2120E94C4120E947D
:1014EE00C812EA93E6E9EA930E94AF120F5F1F4F0C
:1014FE00ECCF00E010E00032E3E01E072CF40E9477
:10150E008C120F5F1F4FF7CF0E942F120E94B51241
:10151E000E94BB12E1E00E94E5110E94C01200E0A1
:10152E0010E0003DE7E01E072CF40E948C120F5FC6
:10153E001F4FF7CF0E94C4120E9402130E94F01296
:10154E00E1E0EA93E6E9EA930E94AF1200E010E0D0
:10155E00083EE3E01E072CF40E948C120F5F1F4F13
:10156E00F7CF0E94B512E1E00E94EA12E8E7EA9393
:10157E000E94AA120E940A130E941D13083EE3E065
:10158E001E072CF40E948C120F5F1F4FF7CF0E9484
:10159E00FA120E94C4120E94E2120E94E7120E94E6
:1015AE000A130E941D130032E3E01E072CF40E9462
:1015BE008C120F5F1F4FF7CFAF9800E010E0043191
:1015CE00E5E01E072CF40E9484120F5F1F4FF7CF29
:1015DE00AF9A00E010E0083EE3E01E072CF40E94F4
:1015EE008C120F5F1F4FF7CF0E942F12AC81A230CB
:1015FE0059F40E94FA120E9402130E94FF120E94D6
:10160E00D311E8ECF0E00AC00E94FA120E94C41254
:10161E000E94FF120E947013E6E9F0E0FA93EA933B
:10162E000E94AE0200E010E00235E3E01E072CF44B
:10163E000E948C120F5F1F4FF7CF0E94C4120E94A0
:10164E00C4120E94F012E1E0EA93E8ECEA930E94E1
:10165E00AF1200E010E0003AEFE01E072CF40E94FB
:10166E0084120F5F1F4FF7CFAF9800E010E0003AE3
:10167E00EFE01E072CF40E940D130F5F1F4FF7CFE4
:10168E00AF9A00E010E0003DE7E01E072CF40E9448
:10169E0084120F5F1F4FF7CF0E9415130E941A136B
:1016AE000E943A120E943A120E943A120E94AA1204
:1016BE000E94D3110E947513DD2400E010E0043F58
:1016CE00E1E01E072CF40E9422130F5F1F4FF7CF8D
:1016DE000E943A120E943A12DD2400E010E0083C0B
:1016EE00E0E01E072CF40E9422130F5F1F4FF7CF6E
:1016FE00DD240E94DD120E94C4120E94E2120E949A
:10170E00E7120E94AF1200E010E00436E0E01E0780
:10171E002CF40E9422130F5F1F4FF7CF0E94DD1291
:10172E000E94C4123ADB0E94D3110E94AA120E9498
:10173E00AF12DD2400E010E0083CE0E01E072CF4C0
:10174E000E9422130F5F1F4FF7CF0E942F130E948C
:10175E00C41223DB0E942F120E942F120E943413F8
:10176E000E943413E4EBF0E00E94C0120E944A1370
:10177E00E1E0EA930E943E130E94AE02AF9A00E0AF
:10178E0010E00436E0E01E072CF40E9494120F5F66
:10179E001F4FF7CF0E94C4120E9439130E944D139F
:1017AE000E949A110E94AE0200E010E0093BEBE0AD
:1017BE001E072CF40E9422130F5F1F4FF7CFAF9816
:1017CE000E942F130E945413E6E9EA930E94D3114C
:1017DE000E949A110E94AE02AF9A0E943A120E9483
:1017EE003A120E945D130E9439130E946213053F44
:1017FE00E1E01E072CF40E9494120F5F1F4FF7CFEB
:10180E000E944A13E1E0EA937CDA0E94AA120E9437
:10181E00AA12EBE4F0E00E94C012AC81A43049F4AD
:10182E000E946713E0E0EA93E6E4EA93EFEFF0E05C
:10183E0006C00E94AA120E947013E2ECF1E0FA9325
:10184E00EA930E94AE02E1E0DE2E0E942F120E9469
:10185E002F1200E010E00C32E1E01E072CF40E9483
:10186E0084120F5F1F4FF7CF0E942F130E94211279
:10187E000E941A130E943A12AF9800E010E0003D49
:10188E00E7E01E072CF40E9484120F5F1F4FF7CF64
:10189E00AF9A00E010E00C32E1E01E072CF40E943B
:1018AE0084120F5F1F4FF7CFE7E0EA93E4E0EA936D
:1018BE000E946C130E94E2120E9407130E9475137D
:1018CE00DD24AF9800E010E00436E0E01E072CF4B3
:1018DE000E948C120F5F1F4FF7CFEAE0F0E00E94DC
:1018EE00DB11AF9AE0E0EA930E9407130E940A13FD
:1018FE000E94AA120E94AA12E2E3F0E00E94C01215
:10190E000E949A110E94A60200E010E00634E0E068
:10191E001E072CF40E9422130F5F1F4FF7CF0E9459
:10192E003A120E943A12E5E0EA93E0E0EA930E944E
:10193E0002130E94FF120E9470130E940A130E944B
:10194E001D130436E0E01E072CF40E948C120F5F6C
:10195E001F4FF7CF0E942A130E9402130E94FF12FC
:10196E00E0E0EA93E2E3EA930E94AF120E949A113A
:10197E000E94C013E1E0DE2E0E942F130E94C412BB
:10198E000CDADD240E94AA120E9434130E949A11CE
:10199E000E94AE020E942F120E942F1200E010E051
:1019AE00083EE3E01E072CF40E948C120F5F1F4FBF
:1019BE00F7CF0E945D130E946C130E94E212E6E0C4
:1019CE00EA930E942112E9D90E9416120E94AA12CD
:1019DE000E94AA120E94AF120E94FA120E94C41212
:1019EE000E9462130A30E0E01E076CF40E949A1106
:1019FE000E94C013AF980E949A110E94C013AF9A12
:101A0E000F5F1F4FEFCF0E94621419C20E94E410A5
:101A1E00E1E3F1E00E94BA11E1E4F1E00E94BA11B3
:101A2E00E5E0E515D0F40E9490015E2EE1E0E515AB
:101A3E0019F0E4E0E51529F4A4E1B0E0E0E00E943D
:101A4E004814E2E0E51519F0E3E0E51529F4A4E108
:101A5E00B0E0E1E00E944814E3CF0E94E410E1E51B
:101A6E00F1E00E94BA110E949F110E94E410EBE770
:101A7E005E2E0895ECE0E51511F40C94350E0E94DF
:101A8E0090015E2EE1E0E51569F40E94E410E0E6B7
:101A9E00F1E00E9478130E94DC015E2E5A920EDA5B
:101AAE00EBE75E2EE3E0E51519F40E945C03FACF36
:101ABE00E2E0E51569F40E94E410ECE0E51531F082
:101ACE000E9490015E2E0E94FA03F7CF0E94E4104E
:101ADE00E5E0E51521F40E94E4100E945D04E4E0C7
:101AEE00E51521F40E944E120E943E04E6E0E51533
:101AFE0069F40E94E410E1E7F1E00E9478130E947D
:101B0E00DC015E2E5A92A7DCEBE75E2EE7E0E515D0
:101B1E0011F00C94E10D0E944E120E94E410E2E8C6
:101B2E00F1E00E947D13E3E9F1E00E947D130E9433
:101B3E00DC014E2EE1E0E41511F4662402C0E1E072
:101B4E006E2E0E94E410E4EAF1E00E947D130E94E2
:101B5E0081139E2E0E94E410EDEAF1E00E947D13A7
:101B6E00EEEBF1E00E947D130E94DC014E2EE1E0CF
:101B7E00E41511F4882402C0E1E08E2E0E94E410D8
:101B8E00EFECF1E00E947D130E948113BE2E0E94A5
:101B9E00E410E8EDF1E00E947D130E948113AE2E59
:101BAE000E94E4106A929A928A92BA92EA2DF0E01A
:101BBE000E94C012E8E0E51529F40E94E4100E948C
:101BCE008C12FDCFE9E0E515F1F50E944E120E9450
:101BDE00E410E1EEF1E00E947D13E7E0EA930E944B
:101BEE00F901A1E1B0E00E9448140E94E410EAEE6F
:101BFE00F1E00E947D13E5E0EA930E94F901A2E173
:101C0E00B0E00E9448140E94E410E0EFF1E00E9460
:101C1E007D13E5E0EA930E94F901A3E1B0E00E9492
:101C2E004814A1E1B0E00E943414EA93A2E1B0E0BE
:101C3E000E943414EA93A3E1B0E00E943414EA93B4
:101C4E000E949904EECF552041F40E9467130E9422
:101C5E0075020E9467130E9489020CCF0895E0E07E
:101C6E000E94A511E3ECF1E00E94BA11A4E1B0E0EC
:101C7E000E943414E03019F4E4EDF1E002C0E5EE18
:101C8E00F1E0FA93EA930E9429110E9490015E2ED0
:101C9E00E0E05E1618F0E5E0E51508F40DC0A4E1ED
:101CAE00B0E00E943414E03019F45A92D4DB02C032
:101CBE005A9204D9EBE75E2EE6E0E51519F40E9480
:101CCE009F11D8DEE7E0E51511F40E945C03E8E011
:101CDE00E51569F40E94E410ECE0E51531F00E9480
:101CEE0090015E2E0E94FA03F7CF0E94E410E9E005
:101CFE00E51509F48BDEB3CFE0E0EBBBEABBE8BB46
:101D0E00E7BBEFEFE5BBEAEEE4BBECE0E2BBE3EFF3
:101D1E00E1BBE0E0E3BFE2BFECBFE1EAEFBDEDE027
:101D2E00EEBDE0E0EDBDECBDE7BDE6BDEBBDEABD51
:101D3E00E9BDE8BDE2BDE5BDE4BDE3BDE5BFE4BF81
:101D4E00E9BFE0E8E8B9E0E0E0BFE0E2E7B9E4E8E7
:101D5E00E6B9E0E1EA930E944A11E0E00E94A51183
:101D6E00E6EFF1E00E94BA11E0E00E942612E7E0F1
:101D7E00F2E00E94BA110E949F110E943512E0E01B
:101D8E000E94A511E7E1F2E00E94BA11E0E00E9484
:101D9E002612E8E2F2E00E94BA110E949F110E9400
:101DAE00E4100E949A110E94C013E9E3F2E00E942F
:101DBE00BA11A4E1B0E00E943414EF3F09F426DE1C
:101DCE004EDFFECFFFCF1A930A93AA81BB811296E4
:101DDE000E941614309759F1AA81BB8114960E9465
:101DEE0016148F01309761F00230E0E01E07F0F01C
:101DFE00F80131978F01AA81BB811496ED93FC9364
:101E0E00AA81BB811296ED91FD913196FE93EE93D0
:101E1E003197AC81A083AA81BB810E941614FF2347
:101E2E002AF0ED91FD913196FE93EE9306C0AA81B4
:101E3E00BB81EFEFFFEFED93FC931981088125969F
:101E4E00089526970E94591410E0AC85BD85E0E0F8
:101E5E00F0E0ED93FC93EA89FB893196EA8BFB8BDC
:101E6E003197E4912E2FE03011F40C945510E12FA0
:101E7E00E03039F4253211F411E002C00E948513CE
:101E8E000CC1E130A9F4253219F40E94851304C166
:101E9E0012E040E000E02D3211F401E0FEC02B32E2
:101EAE0011F44BE2FAC0203211F440E2F6C002C047
:101EBE00E23039F450E013E0203311F40068EDC045
:101ECE0004C0E33011F00C945410203310F02A3378
:101EDE0008F007C0AAE05A9F502DE22FE0535E0F84
:101EEE00DCC0E22FE33649F40E948E13E889F989AB
:101EFE00A481AA930E949413CFC0E33741F40E94A9
:101F0E008E130E949C130E947F111E2F0AC0E03771
:101F1E0061F40E948E130E949C130E9489111E2F41
:101F2E00086002600F7730E035C0E43611F0E93614
:101F3E0011F4046002C0E53731F4E4E5F0E0EE831D
:101F4E00FF8315E00DC0E83511F4086004C0E837D2
:101F5E0011F00C945310EEE5F0E0EE83FF8314E0E5
:101F6E0002FF14C00E948E130E94A613AB85AA23F3
:101F7E003AF4EA85FB850E94D513EA87FB874DE28A
:101F8E00403011F01F5F01C00B7F04C00E948E1302
:101F9E000E94A61300FD11C0151778F407FF08C0A4
:101FAE0002FF04C00B7F242F115001C020E301C09B
:101FBE0020E20E9485135150EFCF312F01FF17C041
:101FCE003030A1F003FF06C0EE81FF812591EE8334
:101FDE00FF8305C0AE81BF812D91AE83BF830E946A
:101FEE008513503009F051503150EACF4BC020E3E9
:101FFE00EE81FF810E941A14E887F987EE81FF8136
:10200E003296EE83FF83E885F985AA85BB85AE17E8
:10201E00BF0750F02F5FA885B985EA85FB85EA1BBF
:10202E00FB0BEA87FB87EFCF2A3328F003FF02C0B2
:10203E00295F01C0295D04FD1AC0213320F4A88553
:10204E00B985119709F409C0531710F000FF01C0AC
:10205E0013C020E207FF0BC020E3006102FF07C0A0
:10206E000B7F4A930E949413503009F051500E94F6
:10207E008513503009F051503150A885B98512970B
:10208E0008F0B5CF00FF08C0503031F05150E0E2FB
:10209E00EA930E949413F8CF10E0DDCEAC85BD8597
:1020AE000E9416140E94601464960895FF92F82EF2
:1020BE0026970E945B140E94AE13309719F4EFEF2F
:1020CE00FFEF25C0DE0116960E94CC138D010E94F3
:1020DE00AE13EE83FF83E0E0E887E987DE011A9610
:1020EE000E94CC130E941614FA93EA931A930A9341
:1020FE00EAEEFEE0FA93EA93FE013A96FA93EA9339
:10210E00A0DE9F01AE81BF81E0E0EC93F9010E9459
:10211E0062142A96FF900895FFE0FA95F1F708955C
:10212E00A7B3AF70A7BBC19AC098F6DFC29AF4DF0F
:10213E00A6B3C298F1DFC29AEFDFC298A7FDF5CF22
:10214E000895A07FAB2BA8BBC29A0E949310C29891
:10215E000E9493100895C198A7B3A76FA7BBB8B3F9
:10216E00BF70A881EEDFA881A295EBDFC19A0C9417
:10217E007D11C29A0E949310E6B3C2980E949310EA
:10218E00E07F08950E949310F4DFAE2FF2DFC19826
:10219E00E295EA2B08950E9497100E94BE11E05D11
:1021AE00FD4FE081A981EA0FEA930E94B210C98027
:1021BE00E881E0933402229608950E949710E2E09F
:1021CE00EA930E94B2100E949710ECE0EA930E94EC
:1021DE00B2100E949710E1E0EA930E94B210E0E084
:1021EE00E0933402CE2E0895EF93FF93A881689466
:1021FE00AA3029F0E894E0913502CE1660F0E09115
:10220E003402EF5FE0933402E0E0EA93E0913402AF
:10221E00EA93C1DF36F0C39483DFC09AA881AA93F4
:10222E009ADFFF91EF910C947D111A93A981BA81D7
:10223E00ED91A983BA831E2FE03019F01A93D4DFE3
:10224E00F5CF0EC01A93E981FA813196E983FA83AC
:10225E003197E4911E2FE03019F01A93C5DFF3CFBA
:10226E00188123960895AA27BB271197F1F7089591
:10227E00C198A7B3A76FA7BBB8B3BF70A8810E94C0
:10228E00A810C19A33C0C298C098E881E093350275
:10229E00E058E0933202E881E054E09333020E946A
:1022AE00B5130E94B5130E94B513DDDFE0E2EA9389
:1022BE00DFDFD9DFE8E20E94BB13E4E00E94BB132C
:1022CE00E5E80E94BB13A7B3AF70A7BBC19A0E94EB
:1022DE00C910E53011F0E0E009C00E949710E6E069
:1022EE00EA930E94B2100E94E410E1E02196089554
:1022FE00A991B991EE27FF276D91662311F03196C2
:10230E00FBCF0895AA27BB27E991F99105900020EC
:10231E0011F01196FBCFFD010895E1E0F0E0FA9384
:10232E00EA930C94C013E4E6F0E0FA93EA9308956E
:10233E00E4EFF1E0FA93EA930C94C013EA93E0E031
:10234E00EA930C94D210E9EFF1E0FA93EA93089530
:10235E00FF27662777270E941E14089584E00E94A7
:10236E005D102896F0CFFA93EA930C942911E88128
:10237E00F0E00895AFEFB0E00E942914EA1BFB0BCA
:10238E000895EA93EB81EA930E948902E881F9812C
:10239E00FA93EA930C94C013E0E0EA93EA9308955B
:1023AE00FA93EA930C949D02FA93EA930C94A60284
:1023BE00E5E0F0E0F9CFE1E0F0E0F6CFEA93E4E615
:1023CE00EA93E8ECF0E00895E02FF0E00895A0E144
:1023DE00B0E00E943414E1300895E12FF0E0E25FA6
:1023EE00FD4F0080E12FA0E0B0E0F0E0EE0FFF1F08
:1023FE00AE0FBF1F0E943014A02DB0E0EA17FB07EE
:10240E000895A12FB0E0AA5DBD4F0895A0E0B0E001
:10241E00F0E0EE0FFF1F0895E32FF0E00895E8EED1
:10242E00F3E0FA93EA930C94C013E4E0EA93E1E04C
:10243E00EA930895E2E0EA93E1E0EA930895EA93DD
:10244E00E1E0EA930C94D210FA93EA930C94C01341
:10245E00A0E1B0E0E0E00E94481408950E94E4106C
:10246E00E8ECF0E0F1CFA0E1B0E0E1E00E9448142A
:10247E000895EEEFF1E0FA93EA930895EA930E943D
:10248E00840166CF80E10E945D106496F2CFECE28B
:10249E00F1E0DACFE72DF0E0E130A0E0FA070895A1
:1024AE00A0912E02B0912F02F801EA1BFB0B0895AA
:1024BE00B0E0F8010E94EB13BF0108950E94EB13E8
:1024CE00E60FF71F0E94D91308950E94DE130E9493
:1024DE0023140E94D0139F010895D901F0E0EA174A
:1024EE00FB070895E1E0EA93E22FE195EA93089560
:1024FE00DA01F0E0EA17FB070895E8ECEA93E3E26D
:10250E00EA93ECE1EA930C949904E6E9EA93E7E1A5
:10251E00EA93EFE0EA930C949904E8E7EA93EFE08C
:10252E00EA93EAE0EA930C949904EB81F0E0EA5D19
:10253E00FD4FA081A0300895EA81F0E0EA5DFD4FE5
:10254E00A081A0300895E0E0EA93E8ECEA930895C4
:10255E00E8ECF0E0FA93EA930C94AE02E0E0EA9332
:10256E00E1E0EA93EA930895E1E0EA930E94D4064B
:10257E00EACFFA93EA930C94AE02E1E0EA93EA937F
:10258E000895E1E0EA930E941F07E0E0EA93EAEF84
:10259E00EA93E1E008950E941F07E1E0EA93E4E682
:1025AE00EA93E0E0EA93EAEFEA93D2CFE6E0EA9329
:1025BE00E7E0EA9308950E94D406E1E0EA930895D5
:1025CE00E4E6EA93C0CFEA930E943C06E1E0EA9388
:1025DE0008950E943C06B7CFE1E0EA93E4E6EA9361
:1025EE00E6E9F0E0C6CFE1E0EA93E6E0EA9308958B
:1025FE000E94D406A8CFE1E0EA93E2E0EA930895C0
:10260E00E2E3EA93A0CFE6E9F0E0B3CFEFEFEA938F
:10261E00E3E2EA93E4E1EA930C949904E7E0EA93A7
:10262E00E0E0EA9302CF0E94D4061DCFE1E0DE2E59
:10263E0000E010E00895E6E9EA93E9E1EA93EFE0BD
:10264E00EA930C949904E1E0EA93E0E0EA930895AA
:10265E00E0E0EA93E7E0EA930895E0E0EA93E4E647
:10266E00EA930895E0E0EA93E1E0EA9308950E9488
:10267E003C06AF98E0E0EA93E6E9EA93E0E0EA93FD
:10268E00EBE4EA9350CEE0E0EA93DDCF0E943C0605
:10269E00E0E0EA93E6E9EA93E0CFEAE0EA93E1E0EC
:1026AE00EA930E94D406E0E0EA930895E2E0EA930A
:1026BE00E5E0EA9308950E94D40600E010E0089544
:1026CE00E0E0EA93EFEFEA930895E2E0EA93EA930B
:1026DE000895E1E0EA93E2E3EA930895EAEFF0E089
:1026EE0048CFFA93EA930E941C1122CEFA93EA93F2
:1026FE000C941C11E8E0EA930C94F9012A93ED85F1
:10270E00FE85FA93EA93E989FA8909950895E8898D
:10271E00F9893497E88BF98B0895ED85FE85FA9348
:10272E00EA93E989FA8909950895A889B9891496D1
:10273E000E941614EE83FF83FA93EA930895A889F4
:10274E00B98914960E941614EA87FB870895DE0154
:10275E001C960E94CC130E94161408950E943A11E2
:10276E00E0E3EA930C943F11EA930E94B2100C94AA
:10277E003A11E991F991309639F080EA9FE001978C
:10278E00F1F7A8953197C9F708950024AF0DB01D44
:10279E000895EA1BFB0B680B790B0895F195E195F3
:1027AE00F04008956F2F660F660B762F08958B2FCE
:1027BE00880F880B982F0895FA9FF02DEB9FF00D40
:1027CE00EA9FE02DF10D08951CD0F6DF0EF4E6DF42
:1027DE0008950024112490E1AA0FBB1F001C111CA8
:1027EE000E1A1F0A18F40E0E1F1E01C0A1609A9534
:1027FE0099F7FD01D001089504D0EBDF0EF4CEDF82
:10280E000895E894F7FF02C0C9DF6894B7FF06C0C9
:10281E00A095B095119600F8039400FA0895ED91E5
:10282E00FC91119708950590F491E02D08957A93F7
:10283E006A93FA93EA930895182E862F612D192E16
:10284E00972F712D1B2EBF2FF12D1A2EAE2FE12D8E
:10285E000895119602D0FE2F1197E199FECFFF93A6
:10286E00FFB7F894AEBBBFBBE09AEDB3FFBFFF91CD
:10287E00089507D01196EF93EF2F03D0EF91119794
:10288E000895E19B02C0A895FCCF9FB7F894AEBB0C
:10289E00BFBBE09A8DB3E81719F0EDBBE29AE19A4F
:1028AE009FBF08955A934A933A932A931A930A9381
:1028BE0008955D814C813B812A811981088108959B
:00000001FF
