:040000009AC0FECFD5
:10000400FDCFFCCFFBCFFACFF9CFF8CFF7CFF6CFA8
:10001400F5CFF4CFF3CFF2CFF1CFF0CFEFCFEECFD8
:10002400EDCFECCFEBCF1027E80364000A0001000A
:1000340000100001100001005E5049442026204FAA
:10004400746865725E00312E53657474205049449F
:1000540000322E5365747420537065656400332E2A
:10006400536574742041444300342E52657365749F
:1000740020454550524F4D005265736574205375A9
:10008400636365737385006B703A256420006B6944
:100094003A256420006B643A2564200054733A25A1
:1000A40064200053706565643A2564200053454E0E
:1000B400533A004144435F25643D253364202C209A
:1000C400253364006B70206B69206B6400253364F6
:1000D40020253364202535640053706565642054FD
:1000E4007300253364202564005265616420436FE6
:1000F4006D706C6574650054454B414E204F4B2127
:10010400004C253364205225336420702533640069
:100114005363616E20476172697300486974616D4D
:10012400005075746968000080C0020047012C010A
:100134000000F894EE27ECBBF1E0FBBFEBBFE5BF9A
:10014400F8E1F1BDE1BD8DE0A2E0BB27ED938A9516
:10015400E9F780E092E0A0E6ED930197E9F7EEE29B
:10016400F1E085919591009761F0A591B591059085
:100174001590BF01F00105900D920197E1F7FB0185
:10018400F0CFEFE5EDBFE2E0EEBFC0EED0E0B6C5E4
:10019400AA93E881E066E7B988E28A95F1F7369A8E
:1001A400349BFECF349AE5B121960895AA93ED814C
:1001B400E03011F4909801C0909AEC81E03011F491
:1001C400919801C0919AEB81E03011F4929801C0AA
:1001D400929AEA81E03011F4939801C0939AE981EC
:1001E400F0D7F9BDE8BDE881ECD7FBBDEABD2696A2
:1001F4000895909A919A929A939AEFEFF0E0FBBD4A
:10020400EABDF9BDE8BD0895A0E0C2DFE0930901AD
:10021400A1E0BEDFE0930A01A2E0BADFE0930B01A4
:10022400A3E0B6DFE0930C01A4E0B2DFE0930D019C
:10023400A5E0AEDFE0930E01A6E0AADFE0930F0194
:10024400A7E0A6DFE0931001A5E0B0E0EADBE093CD
:100254001101A6E0B0E0E5DBE0931201A7E0B0E015
:10026400E0DBE0931301A8E0B0E0DBDBE0931401F2
:10027400A9E0B0E0D6DBE0931501AAE0B0E0D1DB61
:10028400E0931601ABE0B0E0CCDBE0931701ACE007
:10029400B0E0C7DBE093180196D7EA1718F4E2E35D
:1002A400E093210190D7AE1718F4E6E9E093210119
:1002B4008FD7EA1718F4E2E3E093220189D7AE1747
:1002C40018F4E6E9E093220188D7EA1718F4E2E388
:1002D400E093230182D7AE1718F4E6E9E0932301F3
:1002E40081D7EA1718F4E2E3E09324017BD7AE1731
:1002F40018F4E6E9E09324017AD7EA1718F4E2E364
:10030400E093250174D7AE1718F4E6E9E0932501CC
:1003140073D7EA1718F4E2E3E09326016DD7AE171A
:1003240018F4E6E9E09326016CD7EA1718F4E2E33F
:10033400E093270166D7AE1718F4E6E9E0932701A6
:1003440065D7EA1718F4E2E3E09328015FD7AE1704
:1003540018F4E6E9E0932801E6E05DD7B49B02C017
:10036400A1E301C0A0E3B2D6A0912101A53620F0FB
:10037400E1E0E093190152D7A0912101A43620F4C1
:10038400E0E0E09319014CD7A0912201A53620F0BA
:10039400E1E0E0931A0142D7A0912201A43620F4AF
:1003A400E0E0E0931A013CD7A0912301A53620F0A8
:1003B400E1E0E0931B0132D7A0912301A43620F49D
:1003C400E0E0E0931B012CD7A0912401A53620F096
:1003D400E1E0E0931C0122D7A0912401A43620F48B
:1003E400E0E0E0931C011CD7A0912501A53620F084
:1003F400E1E0E0931D0112D7A0912501A43620F479
:10040400E0E0E0931D010CD7A0912601A53620F071
:10041400E1E0E0931E0102D7A0912601A43620F466
:10042400E0E0E0931E01FCD6A0912701A53620F060
:10043400E1E0E0931F01F2D6A0912701A43620F455
:10044400E0E0E0931F01ECD6A0912801A53620F04E
:10045400E1E0E0932001E2D6A0912801A43620F443
:10046400E0E0E0932001DCD6B59B02C0A1E301C02B
:10047400A0E32CD6E0912001A0E8EA02602DE091EF
:100484001F01A0E4EA02F0016E0FE0911E01A0E258
:10049400EA02F0016E0FE0911D01A0E1EA02F00111
:1004A400A62FAE0FE0911C01EE0FEE0FEE0FAE0F74
:1004B400E0911B01EE0FEE0FAE0FE0911A01EE0F6B
:1004C400EA0FA0911901EA0F9E2EA92CA0E0B4997D
:1004D400A1E0E2E0EA9F602DA0E0B599A1E0E1E0AF
:1004E400EA9FF001E60F8E2EB82C08959BD6ACE35C
:1004F400B0E014D6B09B03C0B19B32C1F7CF92D603
:10050400AAE4B0E00BD6B29B23C0B39B05C0B09B5A
:1005140062C0B19BEBCFF3CF85D6A5E5B0E0FED5A5
:10052400B29BEDCFB39B05C0B09BBDC0B19BDECFEA
:10053400F3CF78D6A2E6B0E0F1D5B29BEDCFB39B72
:1005440007C0B09902C074D6CAC0B19BCFCFF1CF57
:1005540069D6ADE6B0E0E2D5B29BEBCFB39BCFCF8B
:10056400B09936C0E6E0F0E0FF93EF93E7E0F0E007
:10057400FF93EF93E8E0F0E0FF93EF9369E070E01E
:10058400EAE0F0E00F01ACE0B0E0E0E056DAABE026
:10059400B0E053DAD00151DADB014FDAAF91BF9109
:1005A4004CDAAF91BF9149DAAF91BF9146DAA5E039
:1005B400B0E043DA41D641DA42D63FDA43D63DDAF7
:1005C40044D63BDA45D639DA46D6ACE7B0E045D670
:1005D400B19B8CCFBDCF26D645D6EBE8F0E047D60D
:1005E40049D64BD6B29905C052D6EF3F10F442D645
:1005F40052D6B39905C04BD6E13010F03BD64FD656
:10060400B09B03C0B19B7BCFE6CF0CD62BD6E2E9DF
:10061400F0E02DD648D631D6B29905C047D6EF3F83
:1006240010F441D638D6B39905C040D6E13010F065
:100634003AD635D6B09B03C0B19BCDCFE6CFF2D529
:1006440011D6E9E9F0E013D635D617D6B29905C02C
:1006540034D6EF3F10F42ED61ED6B39905C02DD64E
:10066400E13010F027D61BD6B09B03C0B19BCDCF91
:10067400E6CFD8D5F7D5E0EAF0E0F9D522D6FDD516
:10068400B29905C021D6E23310F41BD604D6B3992F
:1006940005C01AD6E13010F014D601D6B09B9BCF1A
:1006A400B19BCDCFE6CFBED5DDD5E7EAF0E0DFD50F
:1006B4000FD6E3D5B29907C00ED6EF3F20F408D683
:1006C400EB5FBDD5BAD9B39907C005D6E13020F0A8
:1006D400FFD5E550B4D5B1D9B19B1ECFE4CFBBD57E
:1006E400A1EBB0E01BD590DDB09902C0DD2403C0BE
:1006F400B19B1FCFF4CF96D5B5D5E7EBF0E0B7D5D6
:10070400ED2DEDD545DDEBD5F0D5AB5FBF4F89D9E8
:10071400FF2766277727EBD5AD2D3ADDB0990CC0BE
:10072400EDD5ED2D4ED5EB5FFF4FFF93EF93AD2D40
:100734002FDDAF91BF9181D9B19903C0DFD5B7D473
:10074400CECFB29905C0DAD5E7E0DE1608F4D3942B
:10075400B39905C0D3D5E0E0ED1508F4DA94CBCF16
:1007640067D5DD24089577D585D5A5E0EA9FF00106
:10077400E0932F01F0933001A2E5A8D4AAE0C1D5FB
:1007840092D51FD5E0933101F0933201A5E49ED4B4
:10079400A4E1B7D58FD515D5E0933301F093340197
:1007A400A1E494D4AEE1ADD58CD5FF276627772795
:1007B4002DD8A9D5E0E0F0E060E271E4AAD8E09396
:1007C4000101F09302016093030170930401A4E416
:1007D4007DD4A8E296D57CD5F4D4E0933B01F09384
:1007E4003C01AFE573D4A2E38CD572D5EAD4A0E082
:1007F400B0E0AE1BBF0BA0933D01B0933E01A5E456
:1008040065D4ACE37ED5A5E461D4A6E47AD5A0E5AD
:100814005DD4A0E576D5A2E559D4AAE572D5AFE4B6
:1008240055D4A4E66ED5ADE451D4A8EC6AD53FD432
:1008340012D5A8ECB0E06AD5E1EDF0E018D5E0916E
:100844002F01F091300168D5E0913101F09132012E
:1008540063D5E0913301F091340161D562D5ADEDFA
:10086400B0E054D5E6EEF0E002D560D555D563D5B9
:1008740096D752D588E0C2D32C9666D552D5ADEE24
:10088400B0E0EBD4089563D5ABEFB0E047D463D5C3
:1008940019F4E6E9ED1509F002C009D409C05BD5E5
:1008A40019F4E8ECED1509F002C001D4FCC0EBCF5B
:1008B4009798D1D4D7D454D55BD549D5D3D45CD566
:1008C40063D567D52CD5A0DCEEEFEA1509F466D51F
:1008D400EDEFEA1509F469D5EBEFEA1509F46CD5E7
:1008E400E7EFEA1509F46FD5EFEEEA1509F472D5CE
:1008F400EFEDEA1509F475D5EFEBEA1509F478D5AF
:10090400EFE7EA1509F47BD5ECEFEA1509F47ED597
:10091400E9EFEA1509F481D5E3EFEA1509F484D582
:10092400E7EEEA1509F487D5EFECEA1509F489D561
:10093400EFE9EA1509F48CD5EFE3EA1509F48FD54C
:10094400E8EFEA1509F431D5E1EFEA1509F434D5F5
:10095400E3EEEA1509F437D5E7ECEA1509F43AD5DC
:10096400EFE8EA1509F43DD5EFE1EA1509F440D5BD
:10097400E0EFEA1509F44AD5E1EEEA1509F415D5D4
:10098400E3ECEA1509F457D5E7E8EA1509F430D59C
:10099400EFE0EA1509F463D5E0EEEA1509F4FED4B4
:1009A400E1ECEA1509F432D5E3E8EA1509F457D580
:1009B400E7E0EA1509F423D5E1E8EA1509F43BD5A3
:1009C400AA2009F438D5E0E8EA1509F434D5E1E0C1
:1009D400EA1509F430D54AD519F4E1E0EB1509F02C
:1009E40001C047D543D519F4E2E0EB1509F002C084
:1009F40047D549D53BD519F4E3E0EB1509F01DC003
:100A040047D52CD814F449D50CF003C0E8E0F0E045
:100A14003AD5A0913601AA2312F442D50CF003C0B2
:100A2400E8EFFFEF30D539D51CF0EAE0F0E02BD544
:100A34003CD51CF4E6EFFFEF26D53CD57F936F93AE
:100A4400FF93EF937AD5AF91BF918F919F9182D508
:100A54000CF4A9D5AED5B2D5B6D50CF4B7D5AED570
:100A6400FDD71CF4E1E05E2E4424A0914001AA23AA
:100A74000AF4B2D5C2D509F496D5C5D50CF4D9D5A6
:100A8400DED50CF4E2D5E7D5E9D71CF47724E1E010
:100A94006E2EA0914201AA230AF4E2D5AED509F440
:100AA400C8D5EFD505CF979AD6D3DCD359D460D423
:100AB4004ED4D8D361D468D46CD431D4A5DBE1E06E
:100AC400EA1509F46BD4E2E0EA1509F46ED4E4E023
:100AD400EA1509F471D4E8E0EA1509F474D4E0E104
:100AE400EA1509F477D4E0E2EA1509F47AD4E0E4EB
:100AF400EA1509F47DD4E0E8EA1509F480D4E3E0CA
:100B0400EA1509F483D4E6E0EA1509F486D4ECE0A6
:100B1400EA1509F489D4E8E1EA1509F48CD4E0E390
:100B2400EA1509F48ED4E0E6EA1509F491D4E0EC70
:100B3400EA1509F494D4E7E0EA1509F436D4EEE0B2
:100B4400EA1509F439D4ECE1EA1509F43CD4E8E3F4
:100B5400EA1509F43FD4E0E7EA1509F442D4E0EEDB
:100B6400EA1509F445D4EFE0EA1509F44FD4EEE1AF
:100B7400EA1509F41AD4ECE3EA1509F45CD4E8E7BD
:100B8400EA1509F435D4E0EFEA1509F468D4EFE185
:100B9400EA1509F403D4EEE3EA1509F437D4ECE7D3
:100BA400EA1509F45CD4E8EFEA1509F428D4EEE771
:100BB400EA1509F440D45AD409F43DD4EFE7EA1510
:100BC40009F439D4EEEFEA1509F435D468D519F4EB
:100BD400E2E0EB1509F001C04CD461D519F4E1E071
:100BE400EB1509F002C04CD44ED459D519F4E0E009
:100BF400EB1509F01DC04CD431D714F44ED40CF0CD
:100C040003C0E8E0F0E03FD4A0913601AA2312F437
:100C140047D40CF003C0E8EFFFEF35D43ED41CF00A
:100C2400EAE0F0E030D441D41CF4E6EFFFEF2BD43B
:100C340041D47F936F93FF93EF937FD4AF91BF9190
:100C44008F919F9187D40CF4AED4B3D4B7D4BBD4D2
:100C54000CF4BCD4B3D402D71CF4E1E05E2E4424DB
:100C6400A0914001AA230AF4B7D4C7D409F49BD4B1
:100C7400CAD40CF4DED4E3D40CF4E7D4ECD4EED62A
:100C84001CF47724E1E06E2EA0914201AA230AF419
:100C9400E7D4B3D409F4CDD4F4D405CF58D3A4E124
:100CA400B1E03CD2B1DAE4E6DE1638F4D394FAD4F7
:100CB400F9D4E4E6EA93A4E679DAD8D319F4E4E6BD
:100CC400ED1509F009C0F3D194DAE6E9DE2EC3D2BA
:100CD400AFE1B1E023D2D7DDE2D419F4E4E6ED15B7
:100CE40009F009C0E4D185DAE8ECDE2EB4D2A5E23D
:100CF400B1E014D2C8DDA4E104D30895E0E0EBBB75
:100D0400EABBEFEFE8BBE0E0E7BBE5BBE4BBE2BB7B
:100D1400EFEFE1BBE0E0E3BFE2BFECBFE1EAEFBD30
:100D2400EBE0EEBDE0E0EDBDECBDE7BDE6BDEBBD47
:100D3400EABDE9BDE8BDE2BDE5BDE4BDE3BDE5BF97
:100D4400E4BFE9BFEAB9E0E8E8B9E0E0E0BFE0E623
:100D5400E7B9E7E8E6B9E0B7EF7EE0BFE0E0EDB978
:100D6400E6BFA0E1EDD1979AC1DBFDDC97DFFECFB2
:100D7400FFCF9DD47BD69ED4129646D63097F1F001
:100D840099D49BD48F01309761F00230E0E01E07C4
:100D9400A0F0F80131978F01AA81BB811496ED93DD
:100DA400FC9388D412968CD43197AC81A08382D4DE
:100DB4002BD6FF2312F07ED483D405C07BD4EFEF6F
:100DC400FFEFED93FC9359D62596089570D426979A
:100DD40049D610E0AC85BD85E0E0F0E0ED93FC93EE
:100DE400EA89FB893196EA8BFB8B3197E4912E2FAC
:100DF400E03009F4FDC0E12FE03031F4253211F484
:100E040011E001C063D4F3C0E130A1F4253211F440
:100E14005DD4ECC012E040E000E02D3211F401E0BA
:100E2400E6C02B3211F44BE2E2C0203211F440E26E
:100E3400DEC002C0E23039F450E013E0203311F494
:100E44000068D5C003C0E33009F0D1C0203310F0EE
:100E54002A3308F007C0AAE05A9F502DE22FE0532E
:100E64005E0FC5C0E22FE33639F437D439D435D414
:100E7400A481AA9339D4BAC0E33731F43BD43CD427
:100E84003ED488D11E2F08C0E03751F433D434D473
:100E940036D48BD11E2F086002600F7730E02EC04D
:100EA400E43611F0E93611F4046002C0E53729F4A0
:100EB400EAE2F0E029D415E00BC0E83511F408604B
:100EC40003C0E83709F092C0E4E3F0E01DD414E075
:100ED40002FF11C00FD410D41AD4AB85AA232AF46C
:100EE400EA85FB855FD513D44DE2403011F01F5FD6
:100EF40001C00B7F03C0FED3FFD309D400FD10C093
:100F0400151770F407FF08C002FF04C00B7F242FDD
:100F1400115001C020E301C020E2D8D35150F0CFDA
:100F2400312F01FF15C0303091F003FF05C0EE8171
:100F3400FF812591E9D305C0AE81BF812D91AE8398
:100F4400BF83C4D3503009F051503150ECCF45C069
:100F540020E3EE81FF815CD5E887F987EE81FF818C
:100F64003296D2D3E885F985AA85BB852CD348F07F
:100F74002F5FA885B985EA85FB85EA1BFB0BC7D3E0
:100F8400F1CF2A3328F003FF02C0295F01C0295D95
:100F940004FD19C0213320F4A885B985119709F4FB
:100FA40009C0531710F000FF01C011C020E207FF71
:100FB4000AC020E3006102FF06C00B7F4A9394D36A
:100FC400503009F0515082D3503009F05150315013
:100FD400A885B985129708F0BBCF00FF07C0503031
:100FE40029F05150E0E2EA937FD3F9CF10E0F8CE34
:100FF400AC85BD8509D53DD564960895FF92F82E3C
:10100400269732D587D3309719F4EFEFFFEF1CC042
:10101400DE011696C3D48D017DD376D3E0E0E88754
:10102400E987DE011A96BAD4EFD421D11A930A9330
:10103400EBEBF6E01CD1DE011A96C8DE9F01AE810F
:10104400BF81E0E0EC93F90116D52A96FF9008954C
:10105400AA93E5B3EF70AE2FE881E07FEA2BE5BBFE
:1010640088E08A95F1F7AA9A84E18A95F1F7AA981B
:1010740084E18A95F1F78CC0AA93A881E9DFE8811D
:10108400E295E883A881E4DF88EC8A95F1F780C0D3
:10109400AA93E88196D0E95BFE4FE081A981AE0F67
:1010A400EBDFC980E881E0934B0122960895A2E02A
:1010B400E3DFA3E026D1ACE0DFDFA1E0DDDFA3E0E6
:1010C40020D1E0E0E0934B01CE2E0895AA93A881AD
:1010D400AA3021F0E0914C01CE1660F0E0E0EA93F2
:1010E400A0914B01AF5FA0934B01D2DFA881AA303E
:1010F40009F44EC0C394A89AA881BEDFA89848C03A
:10110400D6D21A93A981BA81ED91A983BA831E2FED
:10111400E03019F0A12FDADFF5CF0FC0C8D21A934F
:10112400E981FA813196E983FA833197E4911E2F9C
:10113400E03019F0A12FCADFF3CF18812396089568
:10114400AA93E4B3E06FE4BBA29AA09AA19AAA98E6
:10115400A898A998E881E0934C01E058E0934901EC
:10116400E881E054E0934A01A4E1CBD0D8D2D7D2AD
:10117400D6D2A0E26DDF8CE291E00197F1F7A8E20C
:101184007BDFA4E079DFA5E877DFA6E075DF8FDFFA
:10119400219608958CD2A991B991EE27FF276D91DC
:1011A400662311F03196FBCF089581D2AA27BB277D
:1011B400E991F9910590002011F01196FBCFFD0102
:1011C4000895F0E00895E0911101A09109010895B6
:1011D400A0910A01E09112010895A0910B01E09100
:1011E40013010895A0910C01E09114010895A091B8
:1011F4000D01E09115010895A0910E01E0911601F1
:101204000895A0910F01E09117010895A091100194
:10121400E09118010895EA93A0E03ACFA1E356CFF4
:10122400A0E354CFA4E6B0E081D241DFE0E0F3CF05
:10123400A4E6B0E07BD23BCFA3E0B0E00895A4E005
:10124400B0E00895A2E0B0E00895A1E0B0E0089510
:10125400A0E0B0E00895E0E0DECF60DFA4EFB1E00D
:1012640065D225CFE0EEF0E0FA93EA930895FA937D
:10127400EA930895EDDFD5D30895FF2766277727EE
:10128400CBD384E0BBDE2896A0EEB0E039CFA1E05A
:10129400B0E04CD2EFCFEF5FD0D3E1500895E150EE
:1012A400CCD3EF5F0895D1DFBCD30895A1E0B0E0C3
:1012B4003DD2F9CFC7DFB5D30895A1E0B0E036D26F
:1012C400F9CFBADFAED30895A1E0B0E02FD2F9CFC1
:1012D400B6DFA7D30895A1E0B0E028D2F9CFFF2765
:1012E4006627772799D3AD2D0895B0E0089594D358
:1012F4008CE084DE6096A0EEB0E002CFA6E9F5DFD4
:1013040015C2F3DF13C2DF01CB01089507DFE0E06C
:10131400EA93A1E0BDDEA6CF57D37ED3089554D37C
:10132400E6CFA4EFB1E002D2C2DE95CFE0913B015B
:10133400F0913C010895E0910101F0910201609166
:101344000301709104010895A0EEB0E0D9CEE0E06D
:10135400EA93A1E09DCEA0E0B099A1E0A030089569
:10136400E9EDF0E084DFE0914501F0914601D4CF4E
:1013740084E044DE2896E8CFE5E0F1E078DFE09110
:101384003F01F0914001C8CFE0914101F091420149
:10139400C3CFE0913501F09136010895E7E0F0E024
:1013A400E0933501F09336010895E5E0F0E0E09331
:1013B4003501F09336010895E3E0F0E0E093350160
:1013C400F09336010895E1E0F0E0E0933501F09305
:1013D40036010895EFEFFFEFE0933501F093360106
:1013E4000895EDEFFFEFE0933501F0933601089592
:1013F400EBEFFFEFE0933501F09336010895E9EF49
:10140400FFEFE0933501F09336010895E6E0F0E054
:10141400E0933501F09336010895E4E0F0E0E093C1
:101424003501F09336010895E2E0F0E0E0933501F0
:10143400F09336010895E0E0E0933501E09336013E
:101444000895EEEFFFEFE0933501F0933601089530
:10145400ECEFFFEFE0933501F09336010895EAEFE6
:10146400FFEFE0933501F09336010895EFEFEA15AD
:101474000895E9E0F0E0E0933501F0933601089532
:10148400E7EFFFEF0895E0933501F09336010895F7
:10149400A0913501B09136010895FADF19970895A6
:1014A400F7DFEEDFEA17FB070895F2DFA83FEFEF5F
:1014B400BE0708956EDFA0912F01B091300191D243
:1014C400E0933701F0933801E0932901F0932A0166
:1014D400E0913901F0913A01A0913701B0913801BE
:1014E400EA0FFB1FA0913101B09132017AD2E0934F
:1014F4002B01F0932C01A0913901B0913A01E091B4
:101504003701F0913801EA1BFB0BA0913301B09134
:10151400340167D2E0932D01F0932E01E09137015D
:10152400F0913801E0933901F0933A01E0912901F7
:10153400F0912A0149D26AD10895E0912B01F091EA
:101544002C0142D263D1DFDEE0E0F0E46CE176E42A
:10155400E0D108958ED1D7DEE0912D01F0912E01D6
:1015640033D254D186D1E0930501F0930601609300
:1015740007017093080113D1E0934501F0934601EC
:10158400A0914501B0914601D1DEEA1BFB0BE0932B
:101594003F01F0934001CADEA0913F01B0914001A8
:1015A400EA17FB070895C2DEE0933F01F093400180
:1015B4000895E0913D01F0913E010895A0913F010D
:1015C400B09140010895AE17BF070895F2DFE0938C
:1015D4003F01F093400108955524E1E04E2EEEDFE3
:1015E400E0E0F0E0EA1BFB0BE0934301F0934401DD
:1015F400E0933F01F09340010895E0913701F091A9
:10160400380130970895E0914501F0914601A09189
:101614003B01B0913C01EA0FFB1FE0934101F093C1
:10162400420184DEA0914101B0914201EA17FB0717
:1016340008957CDEE0934101F09342010895B9DFFF
:10164400A0914101B0914201BECFB3DFE0934101CB
:10165400F09342010895A0914101B091420108958F
:10166400E1E07E2E6624F7DFE0E0F0E0EA1BFB0B0E
:10167400E0934301F0934401E0934101F09342016C
:1016840008955A924A927A926A92E0913F01EA93BB
:10169400A09141018BD54FDE80D0DF0147C0E0E04F
:1016A400EA150895E1E0EA93E0E0EA930895BA9335
:1016B400AA930895AA81BB8108951496A5D108958B
:1016C400ED91FD913196FE93EE9308952A93AD85A5
:1016D400BE85EF85F88909950895E889F989089503
:1016E4003497E88BF98B0895AD85BE85EF85F8892D
:1016F40009950895F2DFF4CFA889B989DECFEE8386
:10170400FF83AE81BF810895EE83FF830895EA8746
:10171400FB870895DE011C9641D176D10895A0E39C
:1017240097DC8CE291E00197F1F70895109639F077
:1017340088EB9BE00197F1F7A8951197C9F70895F5
:10174400552342F4503811F4E0FF04C03196691F68
:10175400791F6BF050E8572711F45F93C8C05F3FBF
:1017640031F0660F000C57956795752F08955F93B8
:1017740000200AF0C8C0C1C050E8192E1522880FF5
:10178400991F9527550F879550E8072E0522660F58
:10179400771F7527550F67950895689401C0E894DD
:1017A4005F93F2DF703818F07F3F08F4A0C056E171
:1017B400571BAAF4519558300EF4593030F0EFEF1E
:1017C400FFEF6FEF7FE777F91AC077275523B9F05A
:1017D400EE0FFF1F661F771F5A95D1F710C07727AA
:1017E400583028F0EF2FF62F672F5850F9CF552394
:1017F40031F076956795F795E7955A95D1F70020DE
:101804000AF4D4D05F910895689401C0E8943097A5
:1018140060407040B1F0002426F0772312F4009465
:10182400C5D0172E7EE1112032F07A95EE0FFF1FFE
:10183400661F111CF9CFEF2FF62F612D5F938ADFFE
:101844005F9108954F93AF01FD01DA01AB01BC0133
:10185400CA01402D012C142E4F910895EA0FFB1F4D
:10186400681F0895E095F0956095EF5FFF4F6F4F07
:1018740008955F9381DF903839F1703821F1572F43
:10188400591B2BF112F4DEDFFACF583118F0AA27D6
:10189400BB278827583028F0AB2FB82F88275850FB
:1018A400F9CF552329F08695B795A7955A95D9F779
:1018B400502D512572F0D2DF38F46795F795E795EE
:1018C400739513F420C0BEDF45DF5F910895D8F708
:1018D400FBCFEA1BFB0B680B51F010F40094C2DF42
:1018E400662392F3EE0FFF1F661F7A95CBF7EE2760
:1018F400FF27662777275F910895EFEFFFEF6FE7E4
:101904007FEF5F910895EFEFFFEF6FE77FE75F9160
:1019140008955F9331DF703821F411200AF4EDCF7C
:10192400F2CF903809F4E3CF01240894970B1BF409
:10193400D4F30020F3CF792F1F932F933F934F932A
:1019440011241127222733274427552790E2AE1765
:10195400BF078607410730F0AE1BBF0B860B410B58
:10196400089401C08894551F221F331F111CAA1FFD
:10197400BB1F881F441F9A9551F7F901612D4F91A0
:101984003F912F911F91662332F0550FEE1FFF1FD9
:10199400661F7A9543F2D4DE5F9108950024AF0D5B
:1019A400B01D0895F195E195F0400895F095609586
:1019B4007095E195FF4F6F4F7F4F0895FE2FFF0FF6
:1019C400FF0B6F2F7F2F08956F2F660F660B762FF7
:1019D4000895FA9FF02DEB9FF00DEA9FE02DF10D95
:1019E400089504D0F6DF0EF4DDDF0895E894F7FFE0
:1019F40002C0D8DF6894B7FF06C0A095B0951196D1
:101A040000F8039400FA0895ED91FC91119708955C
:101A14000590F491E02D08957A936A93FA93EA93EA
:101A24000895E199FECFFF93FFB7F894AEBBBFBB17
:101A3400E09AEDB3FFBFFF910895E19B02C0A89522
:101A4400FCCF9FB7F894AEBBBFBBE09A8DB3E81749
:101A540019F0EDBBE29AE19A9FBF089500240A169B
:101A64000B0608955A934A933A932A931A930A9326
:101A740008955D814C813B812A81198108810895F3
:00000001FF
