:100000000C9454000C9400000C9400000C9400001C
:100010000C9400000C9400000C9400000C94000060
:100020000C9400000C9400000C9400000C94000050
:100030000C9400000C9400000C9400000C94000040
:100040000C9400000C9400000C9400000C94000030
:100050000C94000042303D312042313D3000424599
:100060004C4F4B204B4952490042303D30204231E9
:100070003D310042454C4F4B204B414E414E0042DA
:10008000303D312042313D31004D41544900423034
:100090003D302042313D30004D414A55000080C086
:1000A000020060019E000000F894EE27ECBBF1E036
:1000B000FBBFEBBFE5BFF8E1F1BDE1BD8DE0A2E024
:1000C000BB27ED938A95E9F780E094E0A0E6ED93F5
:1000D0000197E9F7E0EAF0E085919591009761F0EA
:1000E000A591B59105901590BF01F00105900D9275
:1000F0000197E1F7FB01F0CFEFE5EDBFE4E0EEBFE4
:10010000C0E6D1E00C948400E0E0EBBBEABBE8BBC6
:10011000E7BBE5BBE4BBE2BBE0E3E1BBE0E0E3BFA0
:10012000E2BFECBFE1EAEFBDEDE0EEBDE0E0EDBD2A
:10013000ECBDE7BDE6BDEBBDEABDE9BDE8BDE2BD96
:10014000E5BDE4BDE3BDE5BFE4BFE9BFEAB9E0E872
:10015000E8B9E0E0E0BFE6B9EDB9E6BFA0E1B8D0AC
:10016000B898B998889A899A8A9A8B9AE8ECF0E0BC
:10017000FBBDEABDF9BDE8BDC09AC19A90989198BF
:1001800092989398CED0E0E00E94C301E02149F01C
:1001900090989198D1D0A4E5B0E0D5D0AEE5B0E08C
:1001A0002FC0A0E0B099A1E0E0E00E94C3010E2EB4
:1001B000A0E0B199A1E0E1E00E94C301E02149F093
:1001C0009098919AC5D0A9E6B0E0BDD0A3E7B0E081
:1001D00017C0A7D0E1E00E94C301E02149F0909848
:1001E0009198B6D0AFE7B0E0AED0A9E8B0E008C0D3
:1001F0009098919AA1D0AEE8B0E0A5D0A8E9B0E07F
:1002000054D0A4E6ACD0BECFFFCFAA93E5B3EF7035
:10021000AE2FE881E07FEA2BE5BB88E08A95F1F715
:10022000AA9A84E18A95F1F7AA9884E18A95F1F770
:1002300076C0AA93A881E9DFE881E295E883A881E6
:10024000E4DF88EC8A95F1F76AC0AA93E881F0E0D0
:10025000E05AFE4FE081A981AE0FEBDF5980488064
:1002600022960895A2E0E5DFA3E079D0ACE0E1DFDB
:10027000A1E0DFDFA3E073D0E0E04E2E5E2E089514
:10028000AA93A881AA3011F0571448F0E0E0EA934D
:100290004394A42DDADFA881AA3009F440C0539416
:1002A000A89AA881C6DFA8983AC0BA93AA931A93CD
:1002B000E981FA813196E983FA833197E4911E2F1F
:1002C000E03019F0A12FDCDFF3CF188123960895D9
:1002D000AA93E4B3E06FE4BBA29AA09AA19AAA9869
:1002E000A898A9987880E881E058E0936201E881B5
:1002F000E054E0936301A4E132D034D033D032D063
:10030000A0E283DF8CE291E00197F1F7A8E291DFB0
:10031000A4E08FDFA5E88DDFA6E08BDFA3DF2196C9
:100320000895A0E0B099A1E0E1E00E94C3010E2E83
:10033000A0E0B199A1E008959298939A93DFE0E04C
:10034000EA93A0E082CFB1DFE0E0EA93A1E07DCFC5
:100350009298939887DFE0E0EA93A0E076CFB0E050
:100360000C94B901A0E351DF8CE291E00197F1F721
:100370000895109639F088EB9BE00197F1F7A89566
:100380001197C9F70895EA17E1E009F0EE270895FB
:00000001FF
